{
  "contractName": "Aggregator_2d",
  "abi": [
    {
      "anonymous": false,
      "inputs": [
        {
          "indexed": false,
          "internalType": "uint256",
          "name": "_param",
          "type": "uint256"
        }
      ],
      "name": "displayParam",
      "type": "event"
    },
    {
      "inputs": [],
      "name": "getWeight",
      "outputs": [
        {
          "components": [
            {
              "internalType": "uint256",
              "name": "iteration",
              "type": "uint256"
            },
            {
              "internalType": "uint256",
              "name": "ID",
              "type": "uint256"
            },
            {
              "internalType": "string",
              "name": "ipfs_address",
              "type": "string"
            },
            {
              "internalType": "uint256[][]",
              "name": "params",
              "type": "uint256[][]"
            }
          ],
          "internalType": "struct SendWeights.Weight[]",
          "name": "",
          "type": "tuple[]"
        }
      ],
      "stateMutability": "view",
      "type": "function"
    },
    {
      "inputs": [],
      "name": "getinfo",
      "outputs": [
        {
          "internalType": "uint256",
          "name": "iter",
          "type": "uint256"
        },
        {
          "internalType": "string",
          "name": "weight_address",
          "type": "string"
        },
        {
          "internalType": "uint256",
          "name": "",
          "type": "uint256"
        }
      ],
      "stateMutability": "view",
      "type": "function"
    },
    {
      "inputs": [
        {
          "internalType": "string",
          "name": "_ipfs_address",
          "type": "string"
        },
        {
          "internalType": "uint256",
          "name": "_iteration",
          "type": "uint256"
        },
        {
          "internalType": "uint256[][]",
          "name": "_params",
          "type": "uint256[][]"
        }
      ],
      "name": "sendWeights",
      "outputs": [
        {
          "internalType": "uint256",
          "name": "",
          "type": "uint256"
        }
      ],
      "stateMutability": "nonpayable",
      "type": "function"
    },
    {
      "inputs": [
        {
          "internalType": "string",
          "name": "_address",
          "type": "string"
        }
      ],
      "name": "setNewWeight",
      "outputs": [],
      "stateMutability": "nonpayable",
      "type": "function"
    },
    {
      "inputs": [],
      "name": "toFloat",
      "outputs": [
        {
          "internalType": "uint32",
          "name": "",
          "type": "uint32"
        }
      ],
      "stateMutability": "view",
      "type": "function"
    },
    {
      "inputs": [
        {
          "internalType": "uint256",
          "name": "",
          "type": "uint256"
        }
      ],
      "name": "weights",
      "outputs": [
        {
          "internalType": "uint256",
          "name": "iteration",
          "type": "uint256"
        },
        {
          "internalType": "uint256",
          "name": "ID",
          "type": "uint256"
        },
        {
          "internalType": "string",
          "name": "ipfs_address",
          "type": "string"
        }
      ],
      "stateMutability": "view",
      "type": "function"
    },
    {
      "inputs": [
        {
          "internalType": "uint256[][]",
          "name": "_layer_params",
          "type": "uint256[][]"
        }
      ],
      "name": "store_params",
      "outputs": [
        {
          "internalType": "uint256",
          "name": "",
          "type": "uint256"
        }
      ],
      "stateMutability": "nonpayable",
      "type": "function"
    },
    {
      "inputs": [],
      "name": "getBalance",
      "outputs": [
        {
          "internalType": "uint256",
          "name": "",
          "type": "uint256"
        }
      ],
      "stateMutability": "pure",
      "type": "function"
    },
    {
      "inputs": [],
      "name": "run_agg",
      "outputs": [
        {
          "internalType": "uint256",
          "name": "",
          "type": "uint256"
        }
      ],
      "stateMutability": "nonpayable",
      "type": "function"
    },
    {
      "inputs": [],
      "name": "read_params",
      "outputs": [
        {
          "internalType": "uint256[][]",
          "name": "",
          "type": "uint256[][]"
        }
      ],
      "stateMutability": "view",
      "type": "function"
    }
  ],
  "bytecode": "0x6080604052600060015560038055600060045534801561001e57600080fd5b50611b9f8061002e6000396000f3fe608060405234801561001057600080fd5b506004361061009e5760003560e01c80634dcb8a4f116100665780634dcb8a4f1461014d578063893ff2461461017d578063a9b4b78014610199578063b5f163ff146101b7578063e8129416146101e95761009e565b8063106b14ee146100a357806312065fe0146100d35780631a2d8629146100f15780631b72bc75146101115780633413bb741461012f575b600080fd5b6100bd60048036038101906100b89190610f95565b610207565b6040516100ca9190610fed565b60405180910390f35b6100db61024e565b6040516100e89190610fed565b60405180910390f35b6100f9610257565b60405161010893929190611087565b60405180910390f35b6101196102fc565b60405161012691906110e4565b60405180910390f35b610137610304565b6040516101449190610fed565b60405180910390f35b610167600480360381019061016291906111b4565b6104f2565b6040516101749190610fed565b60405180910390f35b6101976004803603810190610192919061123f565b6105f4565b005b6101a1610627565b6040516101ae919061157e565b60405180910390f35b6101d160048036038101906101cc91906115a0565b6107cb565b6040516101e0939291906115cd565b60405180910390f35b6101f161088d565b6040516101fe9190611691565b60405180910390f35b6000600782908060018154018082558091505060019003906000526020600020016000909190919091509080519060200190610244929190610c02565b5060019050919050565b6000607b905090565b6000606060006001546002600454818054610271906116e2565b80601f016020809104026020016040519081016040528092919081815260200182805461029d906116e2565b80156102ea5780601f106102bf576101008083540402835291602001916102ea565b820191906000526020600020905b8154815290600101906020018083116102cd57829003601f168201915b50505050509150925092509250909192565b633b9aca0081565b600080600090505b6003548110156103ed576103d96000828154811061032d5761032c611713565b5b9060005260206000209060040201600301805480602002602001604051908101604052809291908181526020016000905b828210156103d0578382906000526020600020018054806020026020016040519081016040528092919081815260200182805480156103bc57602002820191906000526020600020905b8154815260200190600101908083116103a8575b50505050508152602001906001019061035e565b50505050610207565b5080806103e590611771565b91505061030c565b506104d56007805480602002602001604051908101604052809291908181526020016000905b828210156104cc57838290600052602060002001805480602002602001604051908101604052809291908181526020016000905b828210156104b9578382906000526020600020018054806020026020016040519081016040528092919081815260200182805480156104a557602002820191906000526020600020905b815481526020019060010190808311610491575b505050505081526020019060010190610447565b5050505081526020019060010190610413565b5050505061092c565b600890805190602001906104ea929190610c02565b506001905090565b6000600154831461050257600080fd5b6003546004541061051257600080fd5b600060405180608001604052808581526020013360405160200161053691906117fa565b6040516020818303038152906040528051906020012060001c8152602001868152602001848152509080600181540180825580915050600190039060005260206000209060040201600090919091909150600082015181600001556020820151816001015560408201518160020190816105b091906119c1565b5060608201518160030190805190602001906105cd929190610c02565b505050600460008154809291906105e390611771565b919050555060045490509392505050565b806002908161060391906119c1565b506001600081548092919061061790611771565b9190505550600060048190555050565b60606000805480602002602001604051908101604052809291908181526020016000905b828210156107c257838290600052602060002090600402016040518060800160405290816000820154815260200160018201548152602001600282018054610692906116e2565b80601f01602080910402602001604051908101604052809291908181526020018280546106be906116e2565b801561070b5780601f106106e05761010080835404028352916020019161070b565b820191906000526020600020905b8154815290600101906020018083116106ee57829003601f168201915b5050505050815260200160038201805480602002602001604051908101604052809291908181526020016000905b828210156107ab5783829060005260206000200180548060200260200160405190810160405280929190818152602001828054801561079757602002820191906000526020600020905b815481526020019060010190808311610783575b505050505081526020019060010190610739565b50505050815250508152602001906001019061064b565b50505050905090565b600081815481106107db57600080fd5b906000526020600020906004020160009150905080600001549080600101549080600201805461080a906116e2565b80601f0160208091040260200160405190810160405280929190818152602001828054610836906116e2565b80156108835780601f1061085857610100808354040283529160200191610883565b820191906000526020600020905b81548152906001019060200180831161086657829003601f168201915b5050505050905083565b60606008805480602002602001604051908101604052809291908181526020016000905b828210156109235783829060005260206000200180548060200260200160405190810160405280929190818152602001828054801561090f57602002820191906000526020600020905b8154815260200190600101908083116108fb575b5050505050815260200190600101906108b1565b50505050905090565b606060008251905060008360008151811061094a57610949611713565b5b602002602001015151905060008460008151811061096b5761096a611713565b5b602002602001015160008151811061098657610985611713565b5b602002602001015151905060008267ffffffffffffffff8111156109ad576109ac610d3b565b5b6040519080825280602002602001820160405280156109e057816020015b60608152602001906001900390816109cb5790505b50905060005b83811015610b83578267ffffffffffffffff811115610a0857610a07610d3b565b5b604051908082528060200260200182016040528015610a365781602001602082028036833780820191505090505b50828281518110610a4a57610a49611713565b5b602002602001018190525060005b83811015610b6f57610a68610b90565b60005b86811015610add57610aca898281518110610a8957610a88611713565b5b60200260200101518481518110610aa357610aa2611713565b5b60200260200101518381518110610abd57610abc611713565b5b6020026020010151610ba2565b8080610ad590611771565b915050610a6b565b506000610ae8610bd6565b905080848481518110610afe57610afd611713565b5b60200260200101518381518110610b1857610b17611713565b5b6020026020010181815250507fd89c87d2d3ba9dfb756b93438355ceeceba32317a2443ef5ca0261d5def45e6b81604051610b539190610fed565b60405180910390a1508080610b6790611771565b915050610a58565b508080610b7b90611771565b9150506109e6565b5080945050505050919050565b60006006819055506000600581905550565b8060056000828254610bb49190611a93565b9250508190555060066000815480929190610bce90611771565b919050555050565b6000600654633b9aca0063ffffffff16600554610bf39190611ac7565b610bfd9190611b38565b905090565b828054828255906000526020600020908101928215610c51579160200282015b82811115610c50578251829080519060200190610c40929190610c62565b5091602001919060010190610c22565b5b509050610c5e9190610caf565b5090565b828054828255906000526020600020908101928215610c9e579160200282015b82811115610c9d578251825591602001919060010190610c82565b5b509050610cab9190610cd3565b5090565b5b80821115610ccf5760008181610cc69190610cf0565b50600101610cb0565b5090565b5b80821115610cec576000816000905550600101610cd4565b5090565b5080546000825590600052602060002090810190610d0e9190610cd3565b50565b6000604051905090565b600080fd5b600080fd5b600080fd5b6000601f19601f8301169050919050565b7f4e487b7100000000000000000000000000000000000000000000000000000000600052604160045260246000fd5b610d7382610d2a565b810181811067ffffffffffffffff82111715610d9257610d91610d3b565b5b80604052505050565b6000610da5610d11565b9050610db18282610d6a565b919050565b600067ffffffffffffffff821115610dd157610dd0610d3b565b5b602082029050602081019050919050565b600080fd5b600067ffffffffffffffff821115610e0257610e01610d3b565b5b602082029050602081019050919050565b6000819050919050565b610e2681610e13565b8114610e3157600080fd5b50565b600081359050610e4381610e1d565b92915050565b6000610e5c610e5784610de7565b610d9b565b90508083825260208201905060208402830185811115610e7f57610e7e610de2565b5b835b81811015610ea85780610e948882610e34565b845260208401935050602081019050610e81565b5050509392505050565b600082601f830112610ec757610ec6610d25565b5b8135610ed7848260208601610e49565b91505092915050565b6000610ef3610eee84610db6565b610d9b565b90508083825260208201905060208402830185811115610f1657610f15610de2565b5b835b81811015610f5d57803567ffffffffffffffff811115610f3b57610f3a610d25565b5b808601610f488982610eb2565b85526020850194505050602081019050610f18565b5050509392505050565b600082601f830112610f7c57610f7b610d25565b5b8135610f8c848260208601610ee0565b91505092915050565b600060208284031215610fab57610faa610d1b565b5b600082013567ffffffffffffffff811115610fc957610fc8610d20565b5b610fd584828501610f67565b91505092915050565b610fe781610e13565b82525050565b60006020820190506110026000830184610fde565b92915050565b600081519050919050565b600082825260208201905092915050565b60005b83811015611042578082015181840152602081019050611027565b60008484015250505050565b600061105982611008565b6110638185611013565b9350611073818560208601611024565b61107c81610d2a565b840191505092915050565b600060608201905061109c6000830186610fde565b81810360208301526110ae818561104e565b90506110bd6040830184610fde565b949350505050565b600063ffffffff82169050919050565b6110de816110c5565b82525050565b60006020820190506110f960008301846110d5565b92915050565b600080fd5b600067ffffffffffffffff82111561111f5761111e610d3b565b5b61112882610d2a565b9050602081019050919050565b82818337600083830152505050565b600061115761115284611104565b610d9b565b905082815260208101848484011115611173576111726110ff565b5b61117e848285611135565b509392505050565b600082601f83011261119b5761119a610d25565b5b81356111ab848260208601611144565b91505092915050565b6000806000606084860312156111cd576111cc610d1b565b5b600084013567ffffffffffffffff8111156111eb576111ea610d20565b5b6111f786828701611186565b935050602061120886828701610e34565b925050604084013567ffffffffffffffff81111561122957611228610d20565b5b61123586828701610f67565b9150509250925092565b60006020828403121561125557611254610d1b565b5b600082013567ffffffffffffffff81111561127357611272610d20565b5b61127f84828501611186565b91505092915050565b600081519050919050565b600082825260208201905092915050565b6000819050602082019050919050565b6112bd81610e13565b82525050565b600082825260208201905092915050565b60006112df82611008565b6112e981856112c3565b93506112f9818560208601611024565b61130281610d2a565b840191505092915050565b600081519050919050565b600082825260208201905092915050565b6000819050602082019050919050565b600081519050919050565b600082825260208201905092915050565b6000819050602082019050919050565b600061137183836112b4565b60208301905092915050565b6000602082019050919050565b600061139582611339565b61139f8185611344565b93506113aa83611355565b8060005b838110156113db5781516113c28882611365565b97506113cd8361137d565b9250506001810190506113ae565b5085935050505092915050565b60006113f4838361138a565b905092915050565b6000602082019050919050565b60006114148261130d565b61141e8185611318565b93508360208202850161143085611329565b8060005b8581101561146c578484038952815161144d85826113e8565b9450611458836113fc565b925060208a01995050600181019050611434565b50829750879550505050505092915050565b600060808301600083015161149660008601826112b4565b5060208301516114a960208601826112b4565b50604083015184820360408601526114c182826112d4565b915050606083015184820360608601526114db8282611409565b9150508091505092915050565b60006114f4838361147e565b905092915050565b6000602082019050919050565b600061151482611288565b61151e8185611293565b935083602082028501611530856112a4565b8060005b8581101561156c578484038952815161154d85826114e8565b9450611558836114fc565b925060208a01995050600181019050611534565b50829750879550505050505092915050565b600060208201905081810360008301526115988184611509565b905092915050565b6000602082840312156115b6576115b5610d1b565b5b60006115c484828501610e34565b91505092915050565b60006060820190506115e26000830186610fde565b6115ef6020830185610fde565b8181036040830152611601818461104e565b9050949350505050565b600082825260208201905092915050565b60006116278261130d565b611631818561160b565b93508360208202850161164385611329565b8060005b8581101561167f578484038952815161166085826113e8565b945061166b836113fc565b925060208a01995050600181019050611647565b50829750879550505050505092915050565b600060208201905081810360008301526116ab818461161c565b905092915050565b7f4e487b7100000000000000000000000000000000000000000000000000000000600052602260045260246000fd5b600060028204905060018216806116fa57607f821691505b60208210810361170d5761170c6116b3565b5b50919050565b7f4e487b7100000000000000000000000000000000000000000000000000000000600052603260045260246000fd5b7f4e487b7100000000000000000000000000000000000000000000000000000000600052601160045260246000fd5b600061177c82610e13565b91507fffffffffffffffffffffffffffffffffffffffffffffffffffffffffffffffff82036117ae576117ad611742565b5b600182019050919050565b600073ffffffffffffffffffffffffffffffffffffffff82169050919050565b60006117e4826117b9565b9050919050565b6117f4816117d9565b82525050565b600060208201905061180f60008301846117eb565b92915050565b60008190508160005260206000209050919050565b60006020601f8301049050919050565b600082821b905092915050565b6000600883026118777fffffffffffffffffffffffffffffffffffffffffffffffffffffffffffffffff8261183a565b611881868361183a565b95508019841693508086168417925050509392505050565b6000819050919050565b60006118be6118b96118b484610e13565b611899565b610e13565b9050919050565b6000819050919050565b6118d8836118a3565b6118ec6118e4826118c5565b848454611847565b825550505050565b600090565b6119016118f4565b61190c8184846118cf565b505050565b5b81811015611930576119256000826118f9565b600181019050611912565b5050565b601f8211156119755761194681611815565b61194f8461182a565b8101602085101561195e578190505b61197261196a8561182a565b830182611911565b50505b505050565b600082821c905092915050565b60006119986000198460080261197a565b1980831691505092915050565b60006119b18383611987565b9150826002028217905092915050565b6119ca82611008565b67ffffffffffffffff8111156119e3576119e2610d3b565b5b6119ed82546116e2565b6119f8828285611934565b600060209050601f831160018114611a2b5760008415611a19578287015190505b611a2385826119a5565b865550611a8b565b601f198416611a3986611815565b60005b82811015611a6157848901518255600182019150602085019450602081019050611a3c565b86831015611a7e5784890151611a7a601f891682611987565b8355505b6001600288020188555050505b505050505050565b6000611a9e82610e13565b9150611aa983610e13565b9250828201905080821115611ac157611ac0611742565b5b92915050565b6000611ad282610e13565b9150611add83610e13565b9250828202611aeb81610e13565b91508282048414831517611b0257611b01611742565b5b5092915050565b7f4e487b7100000000000000000000000000000000000000000000000000000000600052601260045260246000fd5b6000611b4382610e13565b9150611b4e83610e13565b925082611b5e57611b5d611b09565b5b82820490509291505056fea26469706673582212204538dbbde184a9c1a728f7e30a576ef93b867af8b1e978b902232a04abed174764736f6c63430008110033",
  "immutableReferences": {},
  "source": "// SPDX-License-Identifier: MIT\r\npragma solidity ^0.8.17;\r\npragma experimental ABIEncoderV2;\r\nimport \"./Renew_weight.sol\";\r\n\r\n\r\ncontract Aggregator_2d is RenewWeight{\r\n    uint256 total;\r\n    uint256 counter;\r\n    uint256[][][] edges_params; \r\n    uint256[][] server_params; \r\n    uint32 public constant toFloat = 1E9;\r\n\r\n    function averageLayer(uint256[][][] memory _layer_params)\r\n        internal\r\n        returns (uint256[][] memory)\r\n    {\r\n        uint256 n_clients = _layer_params.length;\r\n        uint256 n_neurons = _layer_params[0].length;\r\n        uint256 n_connections = _layer_params[0][0].length;\r\n        uint256[][] memory newLayer = new uint256[][](n_neurons);\r\n\r\n        for (uint256 i = 0; i < n_neurons; i++) {\r\n            newLayer[i] = new uint256[](n_connections);\r\n\r\n            for (uint256 j = 0; j < n_connections; j++) {\r\n                resetCounters();\r\n\r\n                for (uint256 k = 0; k < n_clients; k++) {\r\n                    calcAverage(_layer_params[k][i][j]);\r\n                }\r\n                uint256 temp_average = getAverage();\r\n                newLayer[i][j] = temp_average;\r\n                emit displayParam(temp_average);\r\n            }\r\n        }\r\n        return newLayer;\r\n    }\r\n\r\n    function store_params(uint256[][] memory _layer_params)\r\n        public\r\n        returns (uint256)\r\n    {\r\n\r\n        edges_params.push(_layer_params);\r\n        return 1;\r\n    }\r\n\r\n    function getBalance() public pure returns (uint256) {\r\n        return 123;\r\n    }\r\n\r\n    function run_agg() public returns (uint256) {\r\n        for (uint256 i = 0; i < max_counts; i++) {\r\n            store_params(weights[i].params);\r\n        }\r\n        server_params = averageLayer(edges_params);\r\n        return 1;\r\n    }\r\n\r\n    function read_params() public view returns (uint256[][] memory) {\r\n        return server_params;\r\n    }\r\n\r\n    function calcAverage(uint256 _newValue) internal {\r\n        total += _newValue;\r\n        counter++;\r\n    }\r\n\r\n    function getAverage() internal view returns (uint256) {\r\n        return ((total * toFloat) / counter);\r\n    }\r\n\r\n    function resetCounters() internal {\r\n        counter = 0;\r\n        total = 0;\r\n    }\r\n\r\n    event displayParam(uint256 _param);\r\n}",
  "sourcePath": "C:\\Users\\Intern\\workspace\\FL\\contracts\\aggregator_2d.sol",
  "compiler": {
    "name": "solc",
    "version": "0.8.17+commit.8df45f5f.Emscripten.clang"
  },
  "schemaVersion": "3.4.10",
  "updatedAt": "2022-09-16T02:47:55.076Z",
  "devdoc": {
    "kind": "dev",
    "methods": {},
    "version": 1
  },
  "userdoc": {
    "kind": "user",
    "methods": {},
    "version": 1
  }
}