{
  "contractName": "RenewWeight",
  "abi": [
    {
      "inputs": [
        {
          "internalType": "string",
          "name": "_ipfs_address",
          "type": "string"
        },
        {
          "internalType": "uint256",
          "name": "_iteration",
          "type": "uint256"
        },
        {
          "internalType": "uint256[][]",
          "name": "_params",
          "type": "uint256[][]"
        }
      ],
      "name": "sendWeights",
      "outputs": [
        {
          "internalType": "uint256",
          "name": "",
          "type": "uint256"
        }
      ],
      "stateMutability": "nonpayable",
      "type": "function"
    },
    {
      "inputs": [
        {
          "internalType": "uint256",
          "name": "",
          "type": "uint256"
        }
      ],
      "name": "weights",
      "outputs": [
        {
          "internalType": "uint256",
          "name": "iteration",
          "type": "uint256"
        },
        {
          "internalType": "uint256",
          "name": "ID",
          "type": "uint256"
        },
        {
          "internalType": "string",
          "name": "ipfs_address",
          "type": "string"
        }
      ],
      "stateMutability": "view",
      "type": "function"
    },
    {
      "inputs": [],
      "name": "getWeight",
      "outputs": [
        {
          "components": [
            {
              "internalType": "uint256",
              "name": "iteration",
              "type": "uint256"
            },
            {
              "internalType": "uint256",
              "name": "ID",
              "type": "uint256"
            },
            {
              "internalType": "string",
              "name": "ipfs_address",
              "type": "string"
            },
            {
              "internalType": "uint256[][]",
              "name": "params",
              "type": "uint256[][]"
            }
          ],
          "internalType": "struct SendWeights.Weight[]",
          "name": "",
          "type": "tuple[]"
        }
      ],
      "stateMutability": "view",
      "type": "function"
    },
    {
      "inputs": [
        {
          "internalType": "string",
          "name": "_address",
          "type": "string"
        }
      ],
      "name": "setNewWeight",
      "outputs": [],
      "stateMutability": "nonpayable",
      "type": "function"
    },
    {
      "inputs": [],
      "name": "getinfo",
      "outputs": [
        {
          "internalType": "uint256",
          "name": "iter",
          "type": "uint256"
        },
        {
          "internalType": "string",
          "name": "weight_address",
          "type": "string"
        },
        {
          "internalType": "uint256",
          "name": "",
          "type": "uint256"
        }
      ],
      "stateMutability": "view",
      "type": "function"
    }
  ],
  "bytecode": "0x6080604052600060015560038055600060045534801561001e57600080fd5b506112c58061002e6000396000f3fe608060405234801561001057600080fd5b50600436106100575760003560e01c80631a2d86291461005c5780634dcb8a4f1461007c578063893ff246146100ac578063a9b4b780146100c8578063b5f163ff146100e6575b600080fd5b610064610118565b60405161007393929190610710565b60405180910390f35b61009660048036038101906100919190610a6c565b6101bd565b6040516100a39190610af7565b60405180910390f35b6100c660048036038101906100c19190610b12565b6102bf565b005b6100d06102f2565b6040516100dd9190610e51565b60405180910390f35b61010060048036038101906100fb9190610e73565b610496565b60405161010f93929190610ea0565b60405180910390f35b600060606000600154600260045481805461013290610f0d565b80601f016020809104026020016040519081016040528092919081815260200182805461015e90610f0d565b80156101ab5780601f10610180576101008083540402835291602001916101ab565b820191906000526020600020905b81548152906001019060200180831161018e57829003601f168201915b50505050509150925092509250909192565b600060015483146101cd57600080fd5b600354600454106101dd57600080fd5b60006040518060800160405280858152602001336040516020016102019190610f7f565b6040516020818303038152906040528051906020012060001c81526020018681526020018481525090806001815401808255809150506001900390600052602060002090600402016000909190919091506000820151816000015560208201518160010155604082015181600201908161027b9190611146565b506060820151816003019080519060200190610298929190610558565b505050600460008154809291906102ae90611247565b919050555060045490509392505050565b80600290816102ce9190611146565b50600160008154809291906102e290611247565b9190505550600060048190555050565b60606000805480602002602001604051908101604052809291908181526020016000905b8282101561048d5783829060005260206000209060040201604051806080016040529081600082015481526020016001820154815260200160028201805461035d90610f0d565b80601f016020809104026020016040519081016040528092919081815260200182805461038990610f0d565b80156103d65780601f106103ab576101008083540402835291602001916103d6565b820191906000526020600020905b8154815290600101906020018083116103b957829003601f168201915b5050505050815260200160038201805480602002602001604051908101604052809291908181526020016000905b828210156104765783829060005260206000200180548060200260200160405190810160405280929190818152602001828054801561046257602002820191906000526020600020905b81548152602001906001019080831161044e575b505050505081526020019060010190610404565b505050508152505081526020019060010190610316565b50505050905090565b600081815481106104a657600080fd5b90600052602060002090600402016000915090508060000154908060010154908060020180546104d590610f0d565b80601f016020809104026020016040519081016040528092919081815260200182805461050190610f0d565b801561054e5780601f106105235761010080835404028352916020019161054e565b820191906000526020600020905b81548152906001019060200180831161053157829003601f168201915b5050505050905083565b8280548282559060005260206000209081019282156105a7579160200282015b828111156105a65782518290805190602001906105969291906105b8565b5091602001919060010190610578565b5b5090506105b49190610605565b5090565b8280548282559060005260206000209081019282156105f4579160200282015b828111156105f35782518255916020019190600101906105d8565b5b5090506106019190610629565b5090565b5b80821115610625576000818161061c9190610646565b50600101610606565b5090565b5b8082111561064257600081600090555060010161062a565b5090565b50805460008255906000526020600020908101906106649190610629565b50565b6000819050919050565b61067a81610667565b82525050565b600081519050919050565b600082825260208201905092915050565b60005b838110156106ba57808201518184015260208101905061069f565b60008484015250505050565b6000601f19601f8301169050919050565b60006106e282610680565b6106ec818561068b565b93506106fc81856020860161069c565b610705816106c6565b840191505092915050565b60006060820190506107256000830186610671565b818103602083015261073781856106d7565b90506107466040830184610671565b949350505050565b6000604051905090565b600080fd5b600080fd5b600080fd5b600080fd5b7f4e487b7100000000000000000000000000000000000000000000000000000000600052604160045260246000fd5b6107a4826106c6565b810181811067ffffffffffffffff821117156107c3576107c261076c565b5b80604052505050565b60006107d661074e565b90506107e2828261079b565b919050565b600067ffffffffffffffff8211156108025761080161076c565b5b61080b826106c6565b9050602081019050919050565b82818337600083830152505050565b600061083a610835846107e7565b6107cc565b90508281526020810184848401111561085657610855610767565b5b610861848285610818565b509392505050565b600082601f83011261087e5761087d610762565b5b813561088e848260208601610827565b91505092915050565b6108a081610667565b81146108ab57600080fd5b50565b6000813590506108bd81610897565b92915050565b600067ffffffffffffffff8211156108de576108dd61076c565b5b602082029050602081019050919050565b600080fd5b600067ffffffffffffffff82111561090f5761090e61076c565b5b602082029050602081019050919050565b600061093361092e846108f4565b6107cc565b90508083825260208201905060208402830185811115610956576109556108ef565b5b835b8181101561097f578061096b88826108ae565b845260208401935050602081019050610958565b5050509392505050565b600082601f83011261099e5761099d610762565b5b81356109ae848260208601610920565b91505092915050565b60006109ca6109c5846108c3565b6107cc565b905080838252602082019050602084028301858111156109ed576109ec6108ef565b5b835b81811015610a3457803567ffffffffffffffff811115610a1257610a11610762565b5b808601610a1f8982610989565b855260208501945050506020810190506109ef565b5050509392505050565b600082601f830112610a5357610a52610762565b5b8135610a638482602086016109b7565b91505092915050565b600080600060608486031215610a8557610a84610758565b5b600084013567ffffffffffffffff811115610aa357610aa261075d565b5b610aaf86828701610869565b9350506020610ac0868287016108ae565b925050604084013567ffffffffffffffff811115610ae157610ae061075d565b5b610aed86828701610a3e565b9150509250925092565b6000602082019050610b0c6000830184610671565b92915050565b600060208284031215610b2857610b27610758565b5b600082013567ffffffffffffffff811115610b4657610b4561075d565b5b610b5284828501610869565b91505092915050565b600081519050919050565b600082825260208201905092915050565b6000819050602082019050919050565b610b9081610667565b82525050565b600082825260208201905092915050565b6000610bb282610680565b610bbc8185610b96565b9350610bcc81856020860161069c565b610bd5816106c6565b840191505092915050565b600081519050919050565b600082825260208201905092915050565b6000819050602082019050919050565b600081519050919050565b600082825260208201905092915050565b6000819050602082019050919050565b6000610c448383610b87565b60208301905092915050565b6000602082019050919050565b6000610c6882610c0c565b610c728185610c17565b9350610c7d83610c28565b8060005b83811015610cae578151610c958882610c38565b9750610ca083610c50565b925050600181019050610c81565b5085935050505092915050565b6000610cc78383610c5d565b905092915050565b6000602082019050919050565b6000610ce782610be0565b610cf18185610beb565b935083602082028501610d0385610bfc565b8060005b85811015610d3f5784840389528151610d208582610cbb565b9450610d2b83610ccf565b925060208a01995050600181019050610d07565b50829750879550505050505092915050565b6000608083016000830151610d696000860182610b87565b506020830151610d7c6020860182610b87565b5060408301518482036040860152610d948282610ba7565b91505060608301518482036060860152610dae8282610cdc565b9150508091505092915050565b6000610dc78383610d51565b905092915050565b6000602082019050919050565b6000610de782610b5b565b610df18185610b66565b935083602082028501610e0385610b77565b8060005b85811015610e3f5784840389528151610e208582610dbb565b9450610e2b83610dcf565b925060208a01995050600181019050610e07565b50829750879550505050505092915050565b60006020820190508181036000830152610e6b8184610ddc565b905092915050565b600060208284031215610e8957610e88610758565b5b6000610e97848285016108ae565b91505092915050565b6000606082019050610eb56000830186610671565b610ec26020830185610671565b8181036040830152610ed481846106d7565b9050949350505050565b7f4e487b7100000000000000000000000000000000000000000000000000000000600052602260045260246000fd5b60006002820490506001821680610f2557607f821691505b602082108103610f3857610f37610ede565b5b50919050565b600073ffffffffffffffffffffffffffffffffffffffff82169050919050565b6000610f6982610f3e565b9050919050565b610f7981610f5e565b82525050565b6000602082019050610f946000830184610f70565b92915050565b60008190508160005260206000209050919050565b60006020601f8301049050919050565b600082821b905092915050565b600060088302610ffc7fffffffffffffffffffffffffffffffffffffffffffffffffffffffffffffffff82610fbf565b6110068683610fbf565b95508019841693508086168417925050509392505050565b6000819050919050565b600061104361103e61103984610667565b61101e565b610667565b9050919050565b6000819050919050565b61105d83611028565b6110716110698261104a565b848454610fcc565b825550505050565b600090565b611086611079565b611091818484611054565b505050565b5b818110156110b5576110aa60008261107e565b600181019050611097565b5050565b601f8211156110fa576110cb81610f9a565b6110d484610faf565b810160208510156110e3578190505b6110f76110ef85610faf565b830182611096565b50505b505050565b600082821c905092915050565b600061111d600019846008026110ff565b1980831691505092915050565b6000611136838361110c565b9150826002028217905092915050565b61114f82610680565b67ffffffffffffffff8111156111685761116761076c565b5b6111728254610f0d565b61117d8282856110b9565b600060209050601f8311600181146111b0576000841561119e578287015190505b6111a8858261112a565b865550611210565b601f1984166111be86610f9a565b60005b828110156111e6578489015182556001820191506020850194506020810190506111c1565b8683101561120357848901516111ff601f89168261110c565b8355505b6001600288020188555050505b505050505050565b7f4e487b7100000000000000000000000000000000000000000000000000000000600052601160045260246000fd5b600061125282610667565b91507fffffffffffffffffffffffffffffffffffffffffffffffffffffffffffffffff820361128457611283611218565b5b60018201905091905056fea2646970667358221220216027e2bcc8401d6e191ba58c5a41d9618e76fa61e7e3fbbcfe84d95df6654964736f6c63430008110033",
  "immutableReferences": {},
  "source": "// SPDX-License-Identifier: MIT\r\npragma solidity ^0.8.17;\r\n\r\nimport \"./Share_weight.sol\";\r\n\r\n\r\ncontract RenewWeight is SendWeights {\r\n    function getWeight() public view returns(Weight[] memory){\r\n        return weights ;\r\n    }\r\n\r\n    function setNewWeight(string memory _address) public {\r\n        now_weight_address = _address;\r\n        nowiteration++;\r\n        cnt = 0;\r\n    }\r\n\r\n    function getinfo() public view returns(uint iter,string memory weight_address,uint){\r\n        return (nowiteration,now_weight_address,cnt);\r\n    }\r\n\r\n}",
  "sourcePath": "C:\\Users\\Intern\\workspace\\FL\\contracts\\Renew_weight.sol",
  "compiler": {
    "name": "solc",
    "version": "0.8.17+commit.8df45f5f.Emscripten.clang"
  },
  "schemaVersion": "3.4.10",
  "updatedAt": "2022-09-16T02:47:55.060Z",
  "devdoc": {
    "kind": "dev",
    "methods": {},
    "version": 1
  },
  "userdoc": {
    "kind": "user",
    "methods": {},
    "version": 1
  }
}