{
  "contractName": "SendWeights",
  "abi": [
    {
      "inputs": [
        {
          "internalType": "uint256",
          "name": "",
          "type": "uint256"
        }
      ],
      "name": "weights",
      "outputs": [
        {
          "internalType": "uint256",
          "name": "iteration",
          "type": "uint256"
        },
        {
          "internalType": "uint256",
          "name": "ID",
          "type": "uint256"
        },
        {
          "internalType": "string",
          "name": "ipfs_address",
          "type": "string"
        }
      ],
      "stateMutability": "view",
      "type": "function"
    },
    {
      "inputs": [
        {
          "internalType": "string",
          "name": "_ipfs_address",
          "type": "string"
        },
        {
          "internalType": "uint256",
          "name": "_iteration",
          "type": "uint256"
        },
        {
          "internalType": "uint256[][]",
          "name": "_params",
          "type": "uint256[][]"
        }
      ],
      "name": "sendWeights",
      "outputs": [
        {
          "internalType": "uint256",
          "name": "",
          "type": "uint256"
        }
      ],
      "stateMutability": "nonpayable",
      "type": "function"
    }
  ],
  "bytecode": "0x6080604052600060015560038055600060045534801561001e57600080fd5b50610c2f8061002e6000396000f3fe608060405234801561001057600080fd5b50600436106100365760003560e01c80634dcb8a4f1461003b578063b5f163ff1461006b575b600080fd5b610055600480360381019061005091906106a9565b61009d565b6040516100629190610743565b60405180910390f35b6100856004803603810190610080919061075e565b61019f565b6040516100949392919061080a565b60405180910390f35b600060015483146100ad57600080fd5b600354600454106100bd57600080fd5b60006040518060800160405280858152602001336040516020016100e19190610889565b6040516020818303038152906040528051906020012060001c81526020018681526020018481525090806001815401808255809150506001900390600052602060002090600402016000909190919091506000820151816000015560208201518160010155604082015181600201908161015b9190610ab0565b506060820151816003019080519060200190610178929190610261565b5050506004600081548092919061018e90610bb1565b919050555060045490509392505050565b600081815481106101af57600080fd5b90600052602060002090600402016000915090508060000154908060010154908060020180546101de906108d3565b80601f016020809104026020016040519081016040528092919081815260200182805461020a906108d3565b80156102575780601f1061022c57610100808354040283529160200191610257565b820191906000526020600020905b81548152906001019060200180831161023a57829003601f168201915b5050505050905083565b8280548282559060005260206000209081019282156102b0579160200282015b828111156102af57825182908051906020019061029f9291906102c1565b5091602001919060010190610281565b5b5090506102bd919061030e565b5090565b8280548282559060005260206000209081019282156102fd579160200282015b828111156102fc5782518255916020019190600101906102e1565b5b50905061030a9190610332565b5090565b5b8082111561032e5760008181610325919061034f565b5060010161030f565b5090565b5b8082111561034b576000816000905550600101610333565b5090565b508054600082559060005260206000209081019061036d9190610332565b50565b6000604051905090565b600080fd5b600080fd5b600080fd5b600080fd5b6000601f19601f8301169050919050565b7f4e487b7100000000000000000000000000000000000000000000000000000000600052604160045260246000fd5b6103d78261038e565b810181811067ffffffffffffffff821117156103f6576103f561039f565b5b80604052505050565b6000610409610370565b905061041582826103ce565b919050565b600067ffffffffffffffff8211156104355761043461039f565b5b61043e8261038e565b9050602081019050919050565b82818337600083830152505050565b600061046d6104688461041a565b6103ff565b90508281526020810184848401111561048957610488610389565b5b61049484828561044b565b509392505050565b600082601f8301126104b1576104b0610384565b5b81356104c184826020860161045a565b91505092915050565b6000819050919050565b6104dd816104ca565b81146104e857600080fd5b50565b6000813590506104fa816104d4565b92915050565b600067ffffffffffffffff82111561051b5761051a61039f565b5b602082029050602081019050919050565b600080fd5b600067ffffffffffffffff82111561054c5761054b61039f565b5b602082029050602081019050919050565b600061057061056b84610531565b6103ff565b905080838252602082019050602084028301858111156105935761059261052c565b5b835b818110156105bc57806105a888826104eb565b845260208401935050602081019050610595565b5050509392505050565b600082601f8301126105db576105da610384565b5b81356105eb84826020860161055d565b91505092915050565b600061060761060284610500565b6103ff565b9050808382526020820190506020840283018581111561062a5761062961052c565b5b835b8181101561067157803567ffffffffffffffff81111561064f5761064e610384565b5b80860161065c89826105c6565b8552602085019450505060208101905061062c565b5050509392505050565b600082601f8301126106905761068f610384565b5b81356106a08482602086016105f4565b91505092915050565b6000806000606084860312156106c2576106c161037a565b5b600084013567ffffffffffffffff8111156106e0576106df61037f565b5b6106ec8682870161049c565b93505060206106fd868287016104eb565b925050604084013567ffffffffffffffff81111561071e5761071d61037f565b5b61072a8682870161067b565b9150509250925092565b61073d816104ca565b82525050565b60006020820190506107586000830184610734565b92915050565b6000602082840312156107745761077361037a565b5b6000610782848285016104eb565b91505092915050565b600081519050919050565b600082825260208201905092915050565b60005b838110156107c55780820151818401526020810190506107aa565b60008484015250505050565b60006107dc8261078b565b6107e68185610796565b93506107f68185602086016107a7565b6107ff8161038e565b840191505092915050565b600060608201905061081f6000830186610734565b61082c6020830185610734565b818103604083015261083e81846107d1565b9050949350505050565b600073ffffffffffffffffffffffffffffffffffffffff82169050919050565b600061087382610848565b9050919050565b61088381610868565b82525050565b600060208201905061089e600083018461087a565b92915050565b7f4e487b7100000000000000000000000000000000000000000000000000000000600052602260045260246000fd5b600060028204905060018216806108eb57607f821691505b6020821081036108fe576108fd6108a4565b5b50919050565b60008190508160005260206000209050919050565b60006020601f8301049050919050565b600082821b905092915050565b6000600883026109667fffffffffffffffffffffffffffffffffffffffffffffffffffffffffffffffff82610929565b6109708683610929565b95508019841693508086168417925050509392505050565b6000819050919050565b60006109ad6109a86109a3846104ca565b610988565b6104ca565b9050919050565b6000819050919050565b6109c783610992565b6109db6109d3826109b4565b848454610936565b825550505050565b600090565b6109f06109e3565b6109fb8184846109be565b505050565b5b81811015610a1f57610a146000826109e8565b600181019050610a01565b5050565b601f821115610a6457610a3581610904565b610a3e84610919565b81016020851015610a4d578190505b610a61610a5985610919565b830182610a00565b50505b505050565b600082821c905092915050565b6000610a8760001984600802610a69565b1980831691505092915050565b6000610aa08383610a76565b9150826002028217905092915050565b610ab98261078b565b67ffffffffffffffff811115610ad257610ad161039f565b5b610adc82546108d3565b610ae7828285610a23565b600060209050601f831160018114610b1a5760008415610b08578287015190505b610b128582610a94565b865550610b7a565b601f198416610b2886610904565b60005b82811015610b5057848901518255600182019150602085019450602081019050610b2b565b86831015610b6d5784890151610b69601f891682610a76565b8355505b6001600288020188555050505b505050505050565b7f4e487b7100000000000000000000000000000000000000000000000000000000600052601160045260246000fd5b6000610bbc826104ca565b91507fffffffffffffffffffffffffffffffffffffffffffffffffffffffffffffffff8203610bee57610bed610b82565b5b60018201905091905056fea2646970667358221220956499d554c6b668be0ceb0d594ddf117a1c2ca34782c6dc597b98018ab3b0c764736f6c63430008110033",
  "immutableReferences": {},
  "source": "// SPDX-License-Identifier: MIT\r\npragma solidity ^0.8.17;\r\n\r\n\r\ncontract SendWeights {\r\n\r\n    struct Weight {\r\n        uint iteration;\r\n        uint ID;\r\n        string ipfs_address;\r\n        uint256[][] params;\r\n    }\r\n\r\n    Weight[] public weights;\r\n    uint nowiteration = 0;\r\n    string now_weight_address;\r\n\r\n    uint max_counts = 3;\r\n    uint cnt = 0;\r\n\r\n\r\n    function sendWeights(string memory _ipfs_address, uint _iteration, uint256 [][] memory _params) \r\n        public \r\n        returns(uint){\r\n        require(_iteration == nowiteration);\r\n        require(cnt  < max_counts);\r\n        weights.push(Weight(_iteration,uint(keccak256(abi.encode(msg.sender))),_ipfs_address,_params));\r\n\r\n        cnt ++;\r\n\r\n        return cnt;\r\n    }\r\n\r\n}",
  "sourcePath": "C:\\Users\\Intern\\workspace\\FL\\contracts\\Share_weight.sol",
  "compiler": {
    "name": "solc",
    "version": "0.8.17+commit.8df45f5f.Emscripten.clang"
  },
  "schemaVersion": "3.4.10",
  "updatedAt": "2022-09-16T02:47:55.068Z",
  "devdoc": {
    "kind": "dev",
    "methods": {},
    "version": 1
  },
  "userdoc": {
    "kind": "user",
    "methods": {},
    "version": 1
  }
}